{
  "_format": "hh-sol-artifact-1",
  "contractName": "Educa",
  "sourceName": "contracts/Educa.sol",
  "abi": [
    {
      "inputs": [
        {
          "internalType": "address",
          "name": "_donationToken",
          "type": "address"
        }
      ],
      "stateMutability": "nonpayable",
      "type": "constructor"
    },
    {
      "anonymous": false,
      "inputs": [
        {
          "indexed": true,
          "internalType": "address",
          "name": "owner",
          "type": "address"
        },
        {
          "indexed": true,
          "internalType": "address",
          "name": "spender",
          "type": "address"
        },
        {
          "indexed": false,
          "internalType": "uint256",
          "name": "value",
          "type": "uint256"
        }
      ],
      "name": "Approval",
      "type": "event"
    },
    {
      "anonymous": false,
      "inputs": [
        {
          "indexed": true,
          "internalType": "bytes32",
          "name": "role",
          "type": "bytes32"
        },
        {
          "indexed": true,
          "internalType": "bytes32",
          "name": "previousAdminRole",
          "type": "bytes32"
        },
        {
          "indexed": true,
          "internalType": "bytes32",
          "name": "newAdminRole",
          "type": "bytes32"
        }
      ],
      "name": "RoleAdminChanged",
      "type": "event"
    },
    {
      "anonymous": false,
      "inputs": [
        {
          "indexed": true,
          "internalType": "bytes32",
          "name": "role",
          "type": "bytes32"
        },
        {
          "indexed": true,
          "internalType": "address",
          "name": "account",
          "type": "address"
        },
        {
          "indexed": true,
          "internalType": "address",
          "name": "sender",
          "type": "address"
        }
      ],
      "name": "RoleGranted",
      "type": "event"
    },
    {
      "anonymous": false,
      "inputs": [
        {
          "indexed": true,
          "internalType": "bytes32",
          "name": "role",
          "type": "bytes32"
        },
        {
          "indexed": true,
          "internalType": "address",
          "name": "account",
          "type": "address"
        },
        {
          "indexed": true,
          "internalType": "address",
          "name": "sender",
          "type": "address"
        }
      ],
      "name": "RoleRevoked",
      "type": "event"
    },
    {
      "anonymous": false,
      "inputs": [
        {
          "indexed": true,
          "internalType": "address",
          "name": "from",
          "type": "address"
        },
        {
          "indexed": true,
          "internalType": "address",
          "name": "to",
          "type": "address"
        },
        {
          "indexed": false,
          "internalType": "uint256",
          "name": "value",
          "type": "uint256"
        }
      ],
      "name": "Transfer",
      "type": "event"
    },
    {
      "inputs": [],
      "name": "DEFAULT_ADMIN_ROLE",
      "outputs": [
        {
          "internalType": "bytes32",
          "name": "",
          "type": "bytes32"
        }
      ],
      "stateMutability": "view",
      "type": "function"
    },
    {
      "inputs": [
        {
          "internalType": "uint256",
          "name": "_amount",
          "type": "uint256"
        }
      ],
      "name": "addDonationPoolBalance",
      "outputs": [],
      "stateMutability": "nonpayable",
      "type": "function"
    },
    {
      "inputs": [
        {
          "internalType": "address",
          "name": "owner",
          "type": "address"
        },
        {
          "internalType": "address",
          "name": "spender",
          "type": "address"
        }
      ],
      "name": "allowance",
      "outputs": [
        {
          "internalType": "uint256",
          "name": "",
          "type": "uint256"
        }
      ],
      "stateMutability": "view",
      "type": "function"
    },
    {
      "inputs": [
        {
          "internalType": "address",
          "name": "spender",
          "type": "address"
        },
        {
          "internalType": "uint256",
          "name": "amount",
          "type": "uint256"
        }
      ],
      "name": "approve",
      "outputs": [
        {
          "internalType": "bool",
          "name": "",
          "type": "bool"
        }
      ],
      "stateMutability": "nonpayable",
      "type": "function"
    },
    {
      "inputs": [],
      "name": "attendance",
      "outputs": [
        {
          "internalType": "contract Attendance",
          "name": "",
          "type": "address"
        }
      ],
      "stateMutability": "view",
      "type": "function"
    },
    {
      "inputs": [
        {
          "internalType": "address",
          "name": "account",
          "type": "address"
        }
      ],
      "name": "balanceOf",
      "outputs": [
        {
          "internalType": "uint256",
          "name": "",
          "type": "uint256"
        }
      ],
      "stateMutability": "view",
      "type": "function"
    },
    {
      "inputs": [],
      "name": "claimAttendance",
      "outputs": [],
      "stateMutability": "nonpayable",
      "type": "function"
    },
    {
      "inputs": [
        {
          "internalType": "address",
          "name": "_student",
          "type": "address"
        },
        {
          "internalType": "string",
          "name": "tokenURI",
          "type": "string"
        }
      ],
      "name": "confirmAttendance",
      "outputs": [],
      "stateMutability": "nonpayable",
      "type": "function"
    },
    {
      "inputs": [],
      "name": "dailyAmount",
      "outputs": [
        {
          "internalType": "uint256",
          "name": "",
          "type": "uint256"
        }
      ],
      "stateMutability": "view",
      "type": "function"
    },
    {
      "inputs": [],
      "name": "decimals",
      "outputs": [
        {
          "internalType": "uint8",
          "name": "",
          "type": "uint8"
        }
      ],
      "stateMutability": "view",
      "type": "function"
    },
    {
      "inputs": [
        {
          "internalType": "address",
          "name": "spender",
          "type": "address"
        },
        {
          "internalType": "uint256",
          "name": "subtractedValue",
          "type": "uint256"
        }
      ],
      "name": "decreaseAllowance",
      "outputs": [
        {
          "internalType": "bool",
          "name": "",
          "type": "bool"
        }
      ],
      "stateMutability": "nonpayable",
      "type": "function"
    },
    {
      "inputs": [],
      "name": "donationToken",
      "outputs": [
        {
          "internalType": "contract IERC20",
          "name": "",
          "type": "address"
        }
      ],
      "stateMutability": "view",
      "type": "function"
    },
    {
      "inputs": [
        {
          "internalType": "bytes32",
          "name": "role",
          "type": "bytes32"
        }
      ],
      "name": "getRoleAdmin",
      "outputs": [
        {
          "internalType": "bytes32",
          "name": "",
          "type": "bytes32"
        }
      ],
      "stateMutability": "view",
      "type": "function"
    },
    {
      "inputs": [
        {
          "internalType": "bytes32",
          "name": "role",
          "type": "bytes32"
        },
        {
          "internalType": "address",
          "name": "account",
          "type": "address"
        }
      ],
      "name": "grantRole",
      "outputs": [],
      "stateMutability": "nonpayable",
      "type": "function"
    },
    {
      "inputs": [
        {
          "internalType": "bytes32",
          "name": "role",
          "type": "bytes32"
        },
        {
          "internalType": "address",
          "name": "account",
          "type": "address"
        }
      ],
      "name": "hasRole",
      "outputs": [
        {
          "internalType": "bool",
          "name": "",
          "type": "bool"
        }
      ],
      "stateMutability": "view",
      "type": "function"
    },
    {
      "inputs": [
        {
          "internalType": "address",
          "name": "spender",
          "type": "address"
        },
        {
          "internalType": "uint256",
          "name": "addedValue",
          "type": "uint256"
        }
      ],
      "name": "increaseAllowance",
      "outputs": [
        {
          "internalType": "bool",
          "name": "",
          "type": "bool"
        }
      ],
      "stateMutability": "nonpayable",
      "type": "function"
    },
    {
      "inputs": [],
      "name": "name",
      "outputs": [
        {
          "internalType": "string",
          "name": "",
          "type": "string"
        }
      ],
      "stateMutability": "view",
      "type": "function"
    },
    {
      "inputs": [
        {
          "internalType": "bytes32",
          "name": "role",
          "type": "bytes32"
        },
        {
          "internalType": "address",
          "name": "account",
          "type": "address"
        }
      ],
      "name": "renounceRole",
      "outputs": [],
      "stateMutability": "nonpayable",
      "type": "function"
    },
    {
      "inputs": [
        {
          "internalType": "bytes32",
          "name": "role",
          "type": "bytes32"
        },
        {
          "internalType": "address",
          "name": "account",
          "type": "address"
        }
      ],
      "name": "revokeRole",
      "outputs": [],
      "stateMutability": "nonpayable",
      "type": "function"
    },
    {
      "inputs": [
        {
          "internalType": "bytes4",
          "name": "interfaceId",
          "type": "bytes4"
        }
      ],
      "name": "supportsInterface",
      "outputs": [
        {
          "internalType": "bool",
          "name": "",
          "type": "bool"
        }
      ],
      "stateMutability": "view",
      "type": "function"
    },
    {
      "inputs": [],
      "name": "symbol",
      "outputs": [
        {
          "internalType": "string",
          "name": "",
          "type": "string"
        }
      ],
      "stateMutability": "view",
      "type": "function"
    },
    {
      "inputs": [],
      "name": "totalSupply",
      "outputs": [
        {
          "internalType": "uint256",
          "name": "",
          "type": "uint256"
        }
      ],
      "stateMutability": "view",
      "type": "function"
    },
    {
      "inputs": [
        {
          "internalType": "address",
          "name": "to",
          "type": "address"
        },
        {
          "internalType": "uint256",
          "name": "amount",
          "type": "uint256"
        }
      ],
      "name": "transfer",
      "outputs": [
        {
          "internalType": "bool",
          "name": "",
          "type": "bool"
        }
      ],
      "stateMutability": "nonpayable",
      "type": "function"
    },
    {
      "inputs": [
        {
          "internalType": "address",
          "name": "from",
          "type": "address"
        },
        {
          "internalType": "address",
          "name": "to",
          "type": "address"
        },
        {
          "internalType": "uint256",
          "name": "amount",
          "type": "uint256"
        }
      ],
      "name": "transferFrom",
      "outputs": [
        {
          "internalType": "bool",
          "name": "",
          "type": "bool"
        }
      ],
      "stateMutability": "nonpayable",
      "type": "function"
    }
  ],
  "bytecode": "0x60806040523480156200001157600080fd5b5060405162006d6a38038062006d6a8339818101604052810190620000379190620002bb565b6040518060400160405280600581526020017f45647563610000000000000000000000000000000000000000000000000000008152506040518060400160405280600381526020017f45444300000000000000000000000000000000000000000000000000000000008152508160039080519060200190620000bb92919062000193565b508060049080519060200190620000d492919062000193565b50505080600660006101000a81548173ffffffffffffffffffffffffffffffffffffffff021916908373ffffffffffffffffffffffffffffffffffffffff160217905550604051620001269062000224565b604051809103906000f08015801562000143573d6000803e3d6000fd5b50600760006101000a81548173ffffffffffffffffffffffffffffffffffffffff021916908373ffffffffffffffffffffffffffffffffffffffff1602179055506005600a819055505062000352565b828054620001a1906200031c565b90600052602060002090601f016020900481019282620001c5576000855562000211565b82601f10620001e057805160ff191683800117855562000211565b8280016001018555821562000211579182015b8281111562000210578251825591602001919060010190620001f3565b5b50905062000220919062000232565b5090565b61384f806200351b83390190565b5b808211156200024d57600081600090555060010162000233565b5090565b600080fd5b600073ffffffffffffffffffffffffffffffffffffffff82169050919050565b6000620002838262000256565b9050919050565b620002958162000276565b8114620002a157600080fd5b50565b600081519050620002b5816200028a565b92915050565b600060208284031215620002d457620002d362000251565b5b6000620002e484828501620002a4565b91505092915050565b7f4e487b7100000000000000000000000000000000000000000000000000000000600052602260045260246000fd5b600060028204905060018216806200033557607f821691505b602082108114156200034c576200034b620002ed565b5b50919050565b6131b980620003626000396000f3fe608060405234801561001057600080fd5b50600436106101585760003560e01c80633ce53cdd116100c3578063a217fddf1161007c578063a217fddf146103dd578063a457c2d7146103fb578063a9059cbb1461042b578063d547741f1461045b578063dd62ed3e14610477578063deb63476146104a757610158565b80633ce53cdd1461031b57806359c1334b1461032557806370a082311461034357806373e9a7121461037357806391d148541461038f57806395d89b41146103bf57610158565b8063248a9ca311610115578063248a9ca3146102475780632f2ff15d146102775780632f61a00614610293578063313ce567146102b157806336568abe146102cf57806339509351146102eb57610158565b806301ffc9a71461015d57806306fdde031461018d578063095ea7b3146101ab5780630df72159146101db57806318160ddd146101f957806323b872dd14610217575b600080fd5b61017760048036038101906101729190611e8a565b6104c3565b6040516101849190611ed2565b60405180910390f35b61019561053d565b6040516101a29190611f86565b60405180910390f35b6101c560048036038101906101c0919061203c565b6105cf565b6040516101d29190611ed2565b60405180910390f35b6101e36105f2565b6040516101f091906120db565b60405180910390f35b610201610618565b60405161020e9190612105565b60405180910390f35b610231600480360381019061022c9190612120565b610622565b60405161023e9190611ed2565b60405180910390f35b610261600480360381019061025c91906121a9565b610651565b60405161026e91906121e5565b60405180910390f35b610291600480360381019061028c9190612200565b610671565b005b61029b61069a565b6040516102a89190612261565b60405180910390f35b6102b96106c0565b6040516102c69190612298565b60405180910390f35b6102e960048036038101906102e49190612200565b6106c9565b005b6103056004803603810190610300919061203c565b61074c565b6040516103129190611ed2565b60405180910390f35b6103236107f6565b005b61032d6108a7565b60405161033a9190612105565b60405180910390f35b61035d600480360381019061035891906122b3565b6108ad565b60405161036a9190612105565b60405180910390f35b61038d60048036038101906103889190612415565b6108f5565b005b6103a960048036038101906103a49190612200565b6109e7565b6040516103b69190611ed2565b60405180910390f35b6103c7610a52565b6040516103d49190611f86565b60405180910390f35b6103e5610ae4565b6040516103f291906121e5565b60405180910390f35b6104156004803603810190610410919061203c565b610aeb565b6040516104229190611ed2565b60405180910390f35b6104456004803603810190610440919061203c565b610bd5565b6040516104529190611ed2565b60405180910390f35b61047560048036038101906104709190612200565b610bf8565b005b610491600480360381019061048c9190612471565b610c21565b60405161049e9190612105565b60405180910390f35b6104c160048036038101906104bc91906124b1565b610ca8565b005b60007f7965db0b000000000000000000000000000000000000000000000000000000007bffffffffffffffffffffffffffffffffffffffffffffffffffffffff1916827bffffffffffffffffffffffffffffffffffffffffffffffffffffffff19161480610536575061053582610d47565b5b9050919050565b60606003805461054c9061250d565b80601f01602080910402602001604051908101604052809291908181526020018280546105789061250d565b80156105c55780601f1061059a576101008083540402835291602001916105c5565b820191906000526020600020905b8154815290600101906020018083116105a857829003601f168201915b5050505050905090565b6000806105da610db1565b90506105e7818585610db9565b600191505092915050565b600660009054906101000a900473ffffffffffffffffffffffffffffffffffffffff1681565b6000600254905090565b60008061062d610db1565b905061063a858285610f84565b610645858585611010565b60019150509392505050565b600060056000838152602001908152602001600020600101549050919050565b61067a82610651565b61068b81610686610db1565b611291565b610695838361132e565b505050565b600760009054906101000a900473ffffffffffffffffffffffffffffffffffffffff1681565b60006012905090565b6106d1610db1565b73ffffffffffffffffffffffffffffffffffffffff168173ffffffffffffffffffffffffffffffffffffffff161461073e576040517f08c379a0000000000000000000000000000000000000000000000000000000008152600401610735906125b1565b60405180910390fd5b610748828261140f565b5050565b600080610757610db1565b90506107eb818585600160008673ffffffffffffffffffffffffffffffffffffffff1673ffffffffffffffffffffffffffffffffffffffff16815260200190815260200160002060008973ffffffffffffffffffffffffffffffffffffffff1673ffffffffffffffffffffffffffffffffffffffff168152602001908152602001600020546107e69190612600565b610db9565b600191505092915050565b6108013360016114f1565b61080b60096116c8565b600760009054906101000a900473ffffffffffffffffffffffffffffffffffffffff1673ffffffffffffffffffffffffffffffffffffffff166342842e0e303361085560096116de565b6040518463ffffffff1660e01b815260040161087393929190612665565b600060405180830381600087803b15801561088d57600080fd5b505af11580156108a1573d6000803e3d6000fd5b50505050565b600a5481565b60008060008373ffffffffffffffffffffffffffffffffffffffff1673ffffffffffffffffffffffffffffffffffffffff168152602001908152602001600020549050919050565b600760009054906101000a900473ffffffffffffffffffffffffffffffffffffffff1673ffffffffffffffffffffffffffffffffffffffff1663e8e8cb42826040518263ffffffff1660e01b81526004016109509190611f86565b6020604051808303816000875af115801561096f573d6000803e3d6000fd5b505050506040513d601f19601f8201168201806040525081019061099391906126b1565b506109e382600a54600660009054906101000a900473ffffffffffffffffffffffffffffffffffffffff1673ffffffffffffffffffffffffffffffffffffffff166116ec9092919063ffffffff16565b5050565b60006005600084815260200190815260200160002060000160008373ffffffffffffffffffffffffffffffffffffffff1673ffffffffffffffffffffffffffffffffffffffff16815260200190815260200160002060009054906101000a900460ff16905092915050565b606060048054610a619061250d565b80601f0160208091040260200160405190810160405280929190818152602001828054610a8d9061250d565b8015610ada5780601f10610aaf57610100808354040283529160200191610ada565b820191906000526020600020905b815481529060010190602001808311610abd57829003601f168201915b5050505050905090565b6000801b81565b600080610af6610db1565b90506000600160008373ffffffffffffffffffffffffffffffffffffffff1673ffffffffffffffffffffffffffffffffffffffff16815260200190815260200160002060008673ffffffffffffffffffffffffffffffffffffffff1673ffffffffffffffffffffffffffffffffffffffff16815260200190815260200160002054905083811015610bbc576040517f08c379a0000000000000000000000000000000000000000000000000000000008152600401610bb390612750565b60405180910390fd5b610bc98286868403610db9565b60019250505092915050565b600080610be0610db1565b9050610bed818585611010565b600191505092915050565b610c0182610651565b610c1281610c0d610db1565b611291565b610c1c838361140f565b505050565b6000600160008473ffffffffffffffffffffffffffffffffffffffff1673ffffffffffffffffffffffffffffffffffffffff16815260200190815260200160002060008373ffffffffffffffffffffffffffffffffffffffff1673ffffffffffffffffffffffffffffffffffffffff16815260200190815260200160002054905092915050565b60008111610ceb576040517f08c379a0000000000000000000000000000000000000000000000000000000008152600401610ce2906127bc565b60405180910390fd5b610d3a333083600660009054906101000a900473ffffffffffffffffffffffffffffffffffffffff1673ffffffffffffffffffffffffffffffffffffffff16611772909392919063ffffffff16565b610d4433826117fb565b50565b60007f01ffc9a7000000000000000000000000000000000000000000000000000000007bffffffffffffffffffffffffffffffffffffffffffffffffffffffff1916827bffffffffffffffffffffffffffffffffffffffffffffffffffffffff1916149050919050565b600033905090565b600073ffffffffffffffffffffffffffffffffffffffff168373ffffffffffffffffffffffffffffffffffffffff161415610e29576040517f08c379a0000000000000000000000000000000000000000000000000000000008152600401610e209061284e565b60405180910390fd5b600073ffffffffffffffffffffffffffffffffffffffff168273ffffffffffffffffffffffffffffffffffffffff161415610e99576040517f08c379a0000000000000000000000000000000000000000000000000000000008152600401610e90906128e0565b60405180910390fd5b80600160008573ffffffffffffffffffffffffffffffffffffffff1673ffffffffffffffffffffffffffffffffffffffff16815260200190815260200160002060008473ffffffffffffffffffffffffffffffffffffffff1673ffffffffffffffffffffffffffffffffffffffff168152602001908152602001600020819055508173ffffffffffffffffffffffffffffffffffffffff168373ffffffffffffffffffffffffffffffffffffffff167f8c5be1e5ebec7d5bd14f71427d1e84f3dd0314c0f7b2291e5b200ac8c7c3b92583604051610f779190612105565b60405180910390a3505050565b6000610f908484610c21565b90507fffffffffffffffffffffffffffffffffffffffffffffffffffffffffffffffff811461100a5781811015610ffc576040517f08c379a0000000000000000000000000000000000000000000000000000000008152600401610ff39061294c565b60405180910390fd5b6110098484848403610db9565b5b50505050565b600073ffffffffffffffffffffffffffffffffffffffff168373ffffffffffffffffffffffffffffffffffffffff161415611080576040517f08c379a0000000000000000000000000000000000000000000000000000000008152600401611077906129de565b60405180910390fd5b600073ffffffffffffffffffffffffffffffffffffffff168273ffffffffffffffffffffffffffffffffffffffff1614156110f0576040517f08c379a00000000000000000000000000000000000000000000000000000000081526004016110e790612a70565b60405180910390fd5b6110fb83838361195b565b60008060008573ffffffffffffffffffffffffffffffffffffffff1673ffffffffffffffffffffffffffffffffffffffff16815260200190815260200160002054905081811015611181576040517f08c379a000000000000000000000000000000000000000000000000000000000815260040161117890612b02565b60405180910390fd5b8181036000808673ffffffffffffffffffffffffffffffffffffffff1673ffffffffffffffffffffffffffffffffffffffff16815260200190815260200160002081905550816000808573ffffffffffffffffffffffffffffffffffffffff1673ffffffffffffffffffffffffffffffffffffffff16815260200190815260200160002060008282546112149190612600565b925050819055508273ffffffffffffffffffffffffffffffffffffffff168473ffffffffffffffffffffffffffffffffffffffff167fddf252ad1be2c89b69c2b068fc378daa952ba7f163c4a11628f55a4df523b3ef846040516112789190612105565b60405180910390a361128b848484611960565b50505050565b61129b82826109e7565b61132a576112c08173ffffffffffffffffffffffffffffffffffffffff166014611965565b6112ce8360001c6020611965565b6040516020016112df929190612bf6565b6040516020818303038152906040526040517f08c379a00000000000000000000000000000000000000000000000000000000081526004016113219190611f86565b60405180910390fd5b5050565b61133882826109e7565b61140b5760016005600084815260200190815260200160002060000160008373ffffffffffffffffffffffffffffffffffffffff1673ffffffffffffffffffffffffffffffffffffffff16815260200190815260200160002060006101000a81548160ff0219169083151502179055506113b0610db1565b73ffffffffffffffffffffffffffffffffffffffff168173ffffffffffffffffffffffffffffffffffffffff16837f2f8788117e7eff1d82e926ec794901d17c78024a50270940304540a733656f0d60405160405180910390a45b5050565b61141982826109e7565b156114ed5760006005600084815260200190815260200160002060000160008373ffffffffffffffffffffffffffffffffffffffff1673ffffffffffffffffffffffffffffffffffffffff16815260200190815260200160002060006101000a81548160ff021916908315150217905550611492610db1565b73ffffffffffffffffffffffffffffffffffffffff168173ffffffffffffffffffffffffffffffffffffffff16837ff6391f5c32d9c69d2a47ea670b442974b53935d1edc7fd64eb21e047a839171b60405160405180910390a45b5050565b600073ffffffffffffffffffffffffffffffffffffffff168273ffffffffffffffffffffffffffffffffffffffff161415611561576040517f08c379a000000000000000000000000000000000000000000000000000000000815260040161155890612ca2565b60405180910390fd5b61156d8260008361195b565b60008060008473ffffffffffffffffffffffffffffffffffffffff1673ffffffffffffffffffffffffffffffffffffffff168152602001908152602001600020549050818110156115f3576040517f08c379a00000000000000000000000000000000000000000000000000000000081526004016115ea90612d34565b60405180910390fd5b8181036000808573ffffffffffffffffffffffffffffffffffffffff1673ffffffffffffffffffffffffffffffffffffffff16815260200190815260200160002081905550816002600082825461164a9190612d54565b92505081905550600073ffffffffffffffffffffffffffffffffffffffff168373ffffffffffffffffffffffffffffffffffffffff167fddf252ad1be2c89b69c2b068fc378daa952ba7f163c4a11628f55a4df523b3ef846040516116af9190612105565b60405180910390a36116c383600084611960565b505050565b6001816000016000828254019250508190555050565b600081600001549050919050565b61176d8363a9059cbb60e01b848460405160240161170b929190612d88565b604051602081830303815290604052907bffffffffffffffffffffffffffffffffffffffffffffffffffffffff19166020820180517bffffffffffffffffffffffffffffffffffffffffffffffffffffffff8381831617835250505050611ba1565b505050565b6117f5846323b872dd60e01b85858560405160240161179393929190612665565b604051602081830303815290604052907bffffffffffffffffffffffffffffffffffffffffffffffffffffffff19166020820180517bffffffffffffffffffffffffffffffffffffffffffffffffffffffff8381831617835250505050611ba1565b50505050565b600073ffffffffffffffffffffffffffffffffffffffff168273ffffffffffffffffffffffffffffffffffffffff16141561186b576040517f08c379a000000000000000000000000000000000000000000000000000000000815260040161186290612dfd565b60405180910390fd5b6118776000838361195b565b80600260008282546118899190612600565b92505081905550806000808473ffffffffffffffffffffffffffffffffffffffff1673ffffffffffffffffffffffffffffffffffffffff16815260200190815260200160002060008282546118de9190612600565b925050819055508173ffffffffffffffffffffffffffffffffffffffff16600073ffffffffffffffffffffffffffffffffffffffff167fddf252ad1be2c89b69c2b068fc378daa952ba7f163c4a11628f55a4df523b3ef836040516119439190612105565b60405180910390a361195760008383611960565b5050565b505050565b505050565b6060600060028360026119789190612e1d565b6119829190612600565b67ffffffffffffffff81111561199b5761199a6122ea565b5b6040519080825280601f01601f1916602001820160405280156119cd5781602001600182028036833780820191505090505b5090507f300000000000000000000000000000000000000000000000000000000000000081600081518110611a0557611a04612e77565b5b60200101907effffffffffffffffffffffffffffffffffffffffffffffffffffffffffffff1916908160001a9053507f780000000000000000000000000000000000000000000000000000000000000081600181518110611a6957611a68612e77565b5b60200101907effffffffffffffffffffffffffffffffffffffffffffffffffffffffffffff1916908160001a90535060006001846002611aa99190612e1d565b611ab39190612600565b90505b6001811115611b53577f3031323334353637383961626364656600000000000000000000000000000000600f861660108110611af557611af4612e77565b5b1a60f81b828281518110611b0c57611b0b612e77565b5b60200101907effffffffffffffffffffffffffffffffffffffffffffffffffffffffffffff1916908160001a905350600485901c945080611b4c90612ea6565b9050611ab6565b5060008414611b97576040517f08c379a0000000000000000000000000000000000000000000000000000000008152600401611b8e90612f1c565b60405180910390fd5b8091505092915050565b6000611c03826040518060400160405280602081526020017f5361666545524332303a206c6f772d6c6576656c2063616c6c206661696c65648152508573ffffffffffffffffffffffffffffffffffffffff16611c689092919063ffffffff16565b9050600081511115611c635780806020019051810190611c239190612f68565b611c62576040517f08c379a0000000000000000000000000000000000000000000000000000000008152600401611c5990613007565b60405180910390fd5b5b505050565b6060611c778484600085611c80565b90509392505050565b606082471015611cc5576040517f08c379a0000000000000000000000000000000000000000000000000000000008152600401611cbc90613099565b60405180910390fd5b611cce85611d94565b611d0d576040517f08c379a0000000000000000000000000000000000000000000000000000000008152600401611d0490613105565b60405180910390fd5b6000808673ffffffffffffffffffffffffffffffffffffffff168587604051611d36919061316c565b60006040518083038185875af1925050503d8060008114611d73576040519150601f19603f3d011682016040523d82523d6000602084013e611d78565b606091505b5091509150611d88828286611db7565b92505050949350505050565b6000808273ffffffffffffffffffffffffffffffffffffffff163b119050919050565b60608315611dc757829050611e17565b600083511115611dda5782518084602001fd5b816040517f08c379a0000000000000000000000000000000000000000000000000000000008152600401611e0e9190611f86565b60405180910390fd5b9392505050565b6000604051905090565b600080fd5b600080fd5b60007fffffffff0000000000000000000000000000000000000000000000000000000082169050919050565b611e6781611e32565b8114611e7257600080fd5b50565b600081359050611e8481611e5e565b92915050565b600060208284031215611ea057611e9f611e28565b5b6000611eae84828501611e75565b91505092915050565b60008115159050919050565b611ecc81611eb7565b82525050565b6000602082019050611ee76000830184611ec3565b92915050565b600081519050919050565b600082825260208201905092915050565b60005b83811015611f27578082015181840152602081019050611f0c565b83811115611f36576000848401525b50505050565b6000601f19601f8301169050919050565b6000611f5882611eed565b611f628185611ef8565b9350611f72818560208601611f09565b611f7b81611f3c565b840191505092915050565b60006020820190508181036000830152611fa08184611f4d565b905092915050565b600073ffffffffffffffffffffffffffffffffffffffff82169050919050565b6000611fd382611fa8565b9050919050565b611fe381611fc8565b8114611fee57600080fd5b50565b60008135905061200081611fda565b92915050565b6000819050919050565b61201981612006565b811461202457600080fd5b50565b60008135905061203681612010565b92915050565b6000806040838503121561205357612052611e28565b5b600061206185828601611ff1565b925050602061207285828601612027565b9150509250929050565b6000819050919050565b60006120a161209c61209784611fa8565b61207c565b611fa8565b9050919050565b60006120b382612086565b9050919050565b60006120c5826120a8565b9050919050565b6120d5816120ba565b82525050565b60006020820190506120f060008301846120cc565b92915050565b6120ff81612006565b82525050565b600060208201905061211a60008301846120f6565b92915050565b60008060006060848603121561213957612138611e28565b5b600061214786828701611ff1565b935050602061215886828701611ff1565b925050604061216986828701612027565b9150509250925092565b6000819050919050565b61218681612173565b811461219157600080fd5b50565b6000813590506121a38161217d565b92915050565b6000602082840312156121bf576121be611e28565b5b60006121cd84828501612194565b91505092915050565b6121df81612173565b82525050565b60006020820190506121fa60008301846121d6565b92915050565b6000806040838503121561221757612216611e28565b5b600061222585828601612194565b925050602061223685828601611ff1565b9150509250929050565b600061224b826120a8565b9050919050565b61225b81612240565b82525050565b60006020820190506122766000830184612252565b92915050565b600060ff82169050919050565b6122928161227c565b82525050565b60006020820190506122ad6000830184612289565b92915050565b6000602082840312156122c9576122c8611e28565b5b60006122d784828501611ff1565b91505092915050565b600080fd5b600080fd5b7f4e487b7100000000000000000000000000000000000000000000000000000000600052604160045260246000fd5b61232282611f3c565b810181811067ffffffffffffffff82111715612341576123406122ea565b5b80604052505050565b6000612354611e1e565b90506123608282612319565b919050565b600067ffffffffffffffff8211156123805761237f6122ea565b5b61238982611f3c565b9050602081019050919050565b82818337600083830152505050565b60006123b86123b384612365565b61234a565b9050828152602081018484840111156123d4576123d36122e5565b5b6123df848285612396565b509392505050565b600082601f8301126123fc576123fb6122e0565b5b813561240c8482602086016123a5565b91505092915050565b6000806040838503121561242c5761242b611e28565b5b600061243a85828601611ff1565b925050602083013567ffffffffffffffff81111561245b5761245a611e2d565b5b612467858286016123e7565b9150509250929050565b6000806040838503121561248857612487611e28565b5b600061249685828601611ff1565b92505060206124a785828601611ff1565b9150509250929050565b6000602082840312156124c7576124c6611e28565b5b60006124d584828501612027565b91505092915050565b7f4e487b7100000000000000000000000000000000000000000000000000000000600052602260045260246000fd5b6000600282049050600182168061252557607f821691505b60208210811415612539576125386124de565b5b50919050565b7f416363657373436f6e74726f6c3a2063616e206f6e6c792072656e6f756e636560008201527f20726f6c657320666f722073656c660000000000000000000000000000000000602082015250565b600061259b602f83611ef8565b91506125a68261253f565b604082019050919050565b600060208201905081810360008301526125ca8161258e565b9050919050565b7f4e487b7100000000000000000000000000000000000000000000000000000000600052601160045260246000fd5b600061260b82612006565b915061261683612006565b9250827fffffffffffffffffffffffffffffffffffffffffffffffffffffffffffffffff0382111561264b5761264a6125d1565b5b828201905092915050565b61265f81611fc8565b82525050565b600060608201905061267a6000830186612656565b6126876020830185612656565b61269460408301846120f6565b949350505050565b6000815190506126ab81612010565b92915050565b6000602082840312156126c7576126c6611e28565b5b60006126d58482850161269c565b91505092915050565b7f45524332303a2064656372656173656420616c6c6f77616e63652062656c6f7760008201527f207a65726f000000000000000000000000000000000000000000000000000000602082015250565b600061273a602583611ef8565b9150612745826126de565b604082019050919050565b600060208201905081810360008301526127698161272d565b9050919050565b7f416d6f756e742073686f756c6420626520626967676572207468616e20300000600082015250565b60006127a6601e83611ef8565b91506127b182612770565b602082019050919050565b600060208201905081810360008301526127d581612799565b9050919050565b7f45524332303a20617070726f76652066726f6d20746865207a65726f2061646460008201527f7265737300000000000000000000000000000000000000000000000000000000602082015250565b6000612838602483611ef8565b9150612843826127dc565b604082019050919050565b600060208201905081810360008301526128678161282b565b9050919050565b7f45524332303a20617070726f766520746f20746865207a65726f20616464726560008201527f7373000000000000000000000000000000000000000000000000000000000000602082015250565b60006128ca602283611ef8565b91506128d58261286e565b604082019050919050565b600060208201905081810360008301526128f9816128bd565b9050919050565b7f45524332303a20696e73756666696369656e7420616c6c6f77616e6365000000600082015250565b6000612936601d83611ef8565b915061294182612900565b602082019050919050565b6000602082019050818103600083015261296581612929565b9050919050565b7f45524332303a207472616e736665722066726f6d20746865207a65726f20616460008201527f6472657373000000000000000000000000000000000000000000000000000000602082015250565b60006129c8602583611ef8565b91506129d38261296c565b604082019050919050565b600060208201905081810360008301526129f7816129bb565b9050919050565b7f45524332303a207472616e7366657220746f20746865207a65726f206164647260008201527f6573730000000000000000000000000000000000000000000000000000000000602082015250565b6000612a5a602383611ef8565b9150612a65826129fe565b604082019050919050565b60006020820190508181036000830152612a8981612a4d565b9050919050565b7f45524332303a207472616e7366657220616d6f756e742065786365656473206260008201527f616c616e63650000000000000000000000000000000000000000000000000000602082015250565b6000612aec602683611ef8565b9150612af782612a90565b604082019050919050565b60006020820190508181036000830152612b1b81612adf565b9050919050565b600081905092915050565b7f416363657373436f6e74726f6c3a206163636f756e7420000000000000000000600082015250565b6000612b63601783612b22565b9150612b6e82612b2d565b601782019050919050565b6000612b8482611eed565b612b8e8185612b22565b9350612b9e818560208601611f09565b80840191505092915050565b7f206973206d697373696e6720726f6c6520000000000000000000000000000000600082015250565b6000612be0601183612b22565b9150612beb82612baa565b601182019050919050565b6000612c0182612b56565b9150612c0d8285612b79565b9150612c1882612bd3565b9150612c248284612b79565b91508190509392505050565b7f45524332303a206275726e2066726f6d20746865207a65726f2061646472657360008201527f7300000000000000000000000000000000000000000000000000000000000000602082015250565b6000612c8c602183611ef8565b9150612c9782612c30565b604082019050919050565b60006020820190508181036000830152612cbb81612c7f565b9050919050565b7f45524332303a206275726e20616d6f756e7420657863656564732062616c616e60008201527f6365000000000000000000000000000000000000000000000000000000000000602082015250565b6000612d1e602283611ef8565b9150612d2982612cc2565b604082019050919050565b60006020820190508181036000830152612d4d81612d11565b9050919050565b6000612d5f82612006565b9150612d6a83612006565b925082821015612d7d57612d7c6125d1565b5b828203905092915050565b6000604082019050612d9d6000830185612656565b612daa60208301846120f6565b9392505050565b7f45524332303a206d696e7420746f20746865207a65726f206164647265737300600082015250565b6000612de7601f83611ef8565b9150612df282612db1565b602082019050919050565b60006020820190508181036000830152612e1681612dda565b9050919050565b6000612e2882612006565b9150612e3383612006565b9250817fffffffffffffffffffffffffffffffffffffffffffffffffffffffffffffffff0483118215151615612e6c57612e6b6125d1565b5b828202905092915050565b7f4e487b7100000000000000000000000000000000000000000000000000000000600052603260045260246000fd5b6000612eb182612006565b91506000821415612ec557612ec46125d1565b5b600182039050919050565b7f537472696e67733a20686578206c656e67746820696e73756666696369656e74600082015250565b6000612f06602083611ef8565b9150612f1182612ed0565b602082019050919050565b60006020820190508181036000830152612f3581612ef9565b9050919050565b612f4581611eb7565b8114612f5057600080fd5b50565b600081519050612f6281612f3c565b92915050565b600060208284031215612f7e57612f7d611e28565b5b6000612f8c84828501612f53565b91505092915050565b7f5361666545524332303a204552433230206f7065726174696f6e20646964206e60008201527f6f74207375636365656400000000000000000000000000000000000000000000602082015250565b6000612ff1602a83611ef8565b9150612ffc82612f95565b604082019050919050565b6000602082019050818103600083015261302081612fe4565b9050919050565b7f416464726573733a20696e73756666696369656e742062616c616e636520666f60008201527f722063616c6c0000000000000000000000000000000000000000000000000000602082015250565b6000613083602683611ef8565b915061308e82613027565b604082019050919050565b600060208201905081810360008301526130b281613076565b9050919050565b7f416464726573733a2063616c6c20746f206e6f6e2d636f6e7472616374000000600082015250565b60006130ef601d83611ef8565b91506130fa826130b9565b602082019050919050565b6000602082019050818103600083015261311e816130e2565b9050919050565b600081519050919050565b600081905092915050565b600061314682613125565b6131508185613130565b9350613160818560208601611f09565b80840191505092915050565b6000613178828461313b565b91508190509291505056fea2646970667358221220e92184d5f0e855af802ecdc40b8df0cda1c0fdfacc8f8e8d0f3f605b052316fa64736f6c634300080b003360806040523480156200001157600080fd5b506040518060400160405280600a81526020017f417474656e64616e6365000000000000000000000000000000000000000000008152506040518060400160405280600381526020017f4154430000000000000000000000000000000000000000000000000000000000815250816000908051906020019062000096929190620000b8565b508060019080519060200190620000af929190620000b8565b505050620001cd565b828054620000c69062000197565b90600052602060002090601f016020900481019282620000ea576000855562000136565b82601f106200010557805160ff191683800117855562000136565b8280016001018555821562000136579182015b828111156200013557825182559160200191906001019062000118565b5b50905062000145919062000149565b5090565b5b80821115620001645760008160009055506001016200014a565b5090565b7f4e487b7100000000000000000000000000000000000000000000000000000000600052602260045260246000fd5b60006002820490506001821680620001b057607f821691505b60208210811415620001c757620001c662000168565b5b50919050565b61367280620001dd6000396000f3fe608060405234801561001057600080fd5b506004361061012c5760003560e01c806370a08231116100ad578063b88d4fde11610071578063b88d4fde14610353578063c87b56dd1461036f578063d547741f1461039f578063e8e8cb42146103bb578063e985e9c5146103eb5761012c565b806370a082311461029b57806391d14854146102cb57806395d89b41146102fb578063a217fddf14610319578063a22cb465146103375761012c565b8063248a9ca3116100f4578063248a9ca3146101e75780632f2ff15d1461021757806336568abe1461023357806342842e0e1461024f5780636352211e1461026b5761012c565b806301ffc9a71461013157806306fdde0314610161578063081812fc1461017f578063095ea7b3146101af57806323b872dd146101cb575b600080fd5b61014b600480360381019061014691906120c6565b61041b565b604051610158919061210e565b60405180910390f35b61016961042d565b60405161017691906121c2565b60405180910390f35b6101996004803603810190610194919061221a565b6104bf565b6040516101a69190612288565b60405180910390f35b6101c960048036038101906101c491906122cf565b610544565b005b6101e560048036038101906101e0919061230f565b61065c565b005b61020160048036038101906101fc9190612398565b6106bc565b60405161020e91906123d4565b60405180910390f35b610231600480360381019061022c91906123ef565b6106dc565b005b61024d600480360381019061024891906123ef565b610705565b005b6102696004803603810190610264919061230f565b610788565b005b6102856004803603810190610280919061221a565b6107a8565b6040516102929190612288565b60405180910390f35b6102b560048036038101906102b0919061242f565b61085a565b6040516102c2919061246b565b60405180910390f35b6102e560048036038101906102e091906123ef565b610912565b6040516102f2919061210e565b60405180910390f35b61030361097d565b60405161031091906121c2565b60405180910390f35b610321610a0f565b60405161032e91906123d4565b60405180910390f35b610351600480360381019061034c91906124b2565b610a16565b005b61036d60048036038101906103689190612627565b610a2c565b005b6103896004803603810190610384919061221a565b610a8e565b60405161039691906121c2565b60405180910390f35b6103b960048036038101906103b491906123ef565b610be0565b005b6103d560048036038101906103d0919061274b565b610c09565b6040516103e2919061246b565b60405180910390f35b61040560048036038101906104009190612794565b610c40565b604051610412919061210e565b60405180910390f35b600061042682610cd4565b9050919050565b60606000805461043c90612803565b80601f016020809104026020016040519081016040528092919081815260200182805461046890612803565b80156104b55780601f1061048a576101008083540402835291602001916104b5565b820191906000526020600020905b81548152906001019060200180831161049857829003601f168201915b5050505050905090565b60006104ca82610d4e565b610509576040517f08c379a0000000000000000000000000000000000000000000000000000000008152600401610500906128a7565b60405180910390fd5b6004600083815260200190815260200160002060009054906101000a900473ffffffffffffffffffffffffffffffffffffffff169050919050565b600061054f826107a8565b90508073ffffffffffffffffffffffffffffffffffffffff168373ffffffffffffffffffffffffffffffffffffffff1614156105c0576040517f08c379a00000000000000000000000000000000000000000000000000000000081526004016105b790612939565b60405180910390fd5b8073ffffffffffffffffffffffffffffffffffffffff166105df610dba565b73ffffffffffffffffffffffffffffffffffffffff16148061060e575061060d81610608610dba565b610c40565b5b61064d576040517f08c379a0000000000000000000000000000000000000000000000000000000008152600401610644906129cb565b60405180910390fd5b6106578383610dc2565b505050565b61066d610667610dba565b82610e7b565b6106ac576040517f08c379a00000000000000000000000000000000000000000000000000000000081526004016106a390612a5d565b60405180910390fd5b6106b7838383610f59565b505050565b600060076000838152602001908152602001600020600101549050919050565b6106e5826106bc565b6106f6816106f1610dba565b6111c0565b610700838361125d565b505050565b61070d610dba565b73ffffffffffffffffffffffffffffffffffffffff168173ffffffffffffffffffffffffffffffffffffffff161461077a576040517f08c379a000000000000000000000000000000000000000000000000000000000815260040161077190612aef565b60405180910390fd5b610784828261133e565b5050565b6107a383838360405180602001604052806000815250610a2c565b505050565b6000806002600084815260200190815260200160002060009054906101000a900473ffffffffffffffffffffffffffffffffffffffff169050600073ffffffffffffffffffffffffffffffffffffffff168173ffffffffffffffffffffffffffffffffffffffff161415610851576040517f08c379a000000000000000000000000000000000000000000000000000000000815260040161084890612b81565b60405180910390fd5b80915050919050565b60008073ffffffffffffffffffffffffffffffffffffffff168273ffffffffffffffffffffffffffffffffffffffff1614156108cb576040517f08c379a00000000000000000000000000000000000000000000000000000000081526004016108c290612c13565b60405180910390fd5b600360008373ffffffffffffffffffffffffffffffffffffffff1673ffffffffffffffffffffffffffffffffffffffff168152602001908152602001600020549050919050565b60006007600084815260200190815260200160002060000160008373ffffffffffffffffffffffffffffffffffffffff1673ffffffffffffffffffffffffffffffffffffffff16815260200190815260200160002060009054906101000a900460ff16905092915050565b60606001805461098c90612803565b80601f01602080910402602001604051908101604052809291908181526020018280546109b890612803565b8015610a055780601f106109da57610100808354040283529160200191610a05565b820191906000526020600020905b8154815290600101906020018083116109e857829003601f168201915b5050505050905090565b6000801b81565b610a28610a21610dba565b8383611420565b5050565b610a3d610a37610dba565b83610e7b565b610a7c576040517f08c379a0000000000000000000000000000000000000000000000000000000008152600401610a7390612a5d565b60405180910390fd5b610a888484848461158d565b50505050565b6060610a9982610d4e565b610ad8576040517f08c379a0000000000000000000000000000000000000000000000000000000008152600401610acf90612ca5565b60405180910390fd5b6000600660008481526020019081526020016000208054610af890612803565b80601f0160208091040260200160405190810160405280929190818152602001828054610b2490612803565b8015610b715780601f10610b4657610100808354040283529160200191610b71565b820191906000526020600020905b815481529060010190602001808311610b5457829003601f168201915b505050505090506000610b826115e9565b9050600081511415610b98578192505050610bdb565b600082511115610bcd578082604051602001610bb5929190612d01565b60405160208183030381529060405292505050610bdb565b610bd684611600565b925050505b919050565b610be9826106bc565b610bfa81610bf5610dba565b6111c0565b610c04838361133e565b505050565b6000610c1560086116a7565b6000610c2160086116bd565b9050610c2d33826116cb565b610c3781846118a5565b80915050919050565b6000600560008473ffffffffffffffffffffffffffffffffffffffff1673ffffffffffffffffffffffffffffffffffffffff16815260200190815260200160002060008373ffffffffffffffffffffffffffffffffffffffff1673ffffffffffffffffffffffffffffffffffffffff16815260200190815260200160002060009054906101000a900460ff16905092915050565b60007f7965db0b000000000000000000000000000000000000000000000000000000007bffffffffffffffffffffffffffffffffffffffffffffffffffffffff1916827bffffffffffffffffffffffffffffffffffffffffffffffffffffffff19161480610d475750610d4682611919565b5b9050919050565b60008073ffffffffffffffffffffffffffffffffffffffff166002600084815260200190815260200160002060009054906101000a900473ffffffffffffffffffffffffffffffffffffffff1673ffffffffffffffffffffffffffffffffffffffff1614159050919050565b600033905090565b816004600083815260200190815260200160002060006101000a81548173ffffffffffffffffffffffffffffffffffffffff021916908373ffffffffffffffffffffffffffffffffffffffff160217905550808273ffffffffffffffffffffffffffffffffffffffff16610e35836107a8565b73ffffffffffffffffffffffffffffffffffffffff167f8c5be1e5ebec7d5bd14f71427d1e84f3dd0314c0f7b2291e5b200ac8c7c3b92560405160405180910390a45050565b6000610e8682610d4e565b610ec5576040517f08c379a0000000000000000000000000000000000000000000000000000000008152600401610ebc90612d97565b60405180910390fd5b6000610ed0836107a8565b90508073ffffffffffffffffffffffffffffffffffffffff168473ffffffffffffffffffffffffffffffffffffffff161480610f3f57508373ffffffffffffffffffffffffffffffffffffffff16610f27846104bf565b73ffffffffffffffffffffffffffffffffffffffff16145b80610f505750610f4f8185610c40565b5b91505092915050565b8273ffffffffffffffffffffffffffffffffffffffff16610f79826107a8565b73ffffffffffffffffffffffffffffffffffffffff1614610fcf576040517f08c379a0000000000000000000000000000000000000000000000000000000008152600401610fc690612e29565b60405180910390fd5b600073ffffffffffffffffffffffffffffffffffffffff168273ffffffffffffffffffffffffffffffffffffffff16141561103f576040517f08c379a000000000000000000000000000000000000000000000000000000000815260040161103690612ebb565b60405180910390fd5b61104a8383836119fb565b611055600082610dc2565b6001600360008573ffffffffffffffffffffffffffffffffffffffff1673ffffffffffffffffffffffffffffffffffffffff16815260200190815260200160002060008282546110a59190612f0a565b925050819055506001600360008473ffffffffffffffffffffffffffffffffffffffff1673ffffffffffffffffffffffffffffffffffffffff16815260200190815260200160002060008282546110fc9190612f3e565b92505081905550816002600083815260200190815260200160002060006101000a81548173ffffffffffffffffffffffffffffffffffffffff021916908373ffffffffffffffffffffffffffffffffffffffff160217905550808273ffffffffffffffffffffffffffffffffffffffff168473ffffffffffffffffffffffffffffffffffffffff167fddf252ad1be2c89b69c2b068fc378daa952ba7f163c4a11628f55a4df523b3ef60405160405180910390a46111bb838383611a00565b505050565b6111ca8282610912565b611259576111ef8173ffffffffffffffffffffffffffffffffffffffff166014611a05565b6111fd8360001c6020611a05565b60405160200161120e92919061302c565b6040516020818303038152906040526040517f08c379a000000000000000000000000000000000000000000000000000000000815260040161125091906121c2565b60405180910390fd5b5050565b6112678282610912565b61133a5760016007600084815260200190815260200160002060000160008373ffffffffffffffffffffffffffffffffffffffff1673ffffffffffffffffffffffffffffffffffffffff16815260200190815260200160002060006101000a81548160ff0219169083151502179055506112df610dba565b73ffffffffffffffffffffffffffffffffffffffff168173ffffffffffffffffffffffffffffffffffffffff16837f2f8788117e7eff1d82e926ec794901d17c78024a50270940304540a733656f0d60405160405180910390a45b5050565b6113488282610912565b1561141c5760006007600084815260200190815260200160002060000160008373ffffffffffffffffffffffffffffffffffffffff1673ffffffffffffffffffffffffffffffffffffffff16815260200190815260200160002060006101000a81548160ff0219169083151502179055506113c1610dba565b73ffffffffffffffffffffffffffffffffffffffff168173ffffffffffffffffffffffffffffffffffffffff16837ff6391f5c32d9c69d2a47ea670b442974b53935d1edc7fd64eb21e047a839171b60405160405180910390a45b5050565b8173ffffffffffffffffffffffffffffffffffffffff168373ffffffffffffffffffffffffffffffffffffffff16141561148f576040517f08c379a0000000000000000000000000000000000000000000000000000000008152600401611486906130b2565b60405180910390fd5b80600560008573ffffffffffffffffffffffffffffffffffffffff1673ffffffffffffffffffffffffffffffffffffffff16815260200190815260200160002060008473ffffffffffffffffffffffffffffffffffffffff1673ffffffffffffffffffffffffffffffffffffffff16815260200190815260200160002060006101000a81548160ff0219169083151502179055508173ffffffffffffffffffffffffffffffffffffffff168373ffffffffffffffffffffffffffffffffffffffff167f17307eab39ab6107e8899845ad3d59bd9653f200f220920489ca2b5937696c3183604051611580919061210e565b60405180910390a3505050565b611598848484610f59565b6115a484848484611c41565b6115e3576040517f08c379a00000000000000000000000000000000000000000000000000000000081526004016115da90613144565b60405180910390fd5b50505050565b606060405180602001604052806000815250905090565b606061160b82610d4e565b61164a576040517f08c379a0000000000000000000000000000000000000000000000000000000008152600401611641906131d6565b60405180910390fd5b60006116546115e9565b90506000815111611674576040518060200160405280600081525061169f565b8061167e84611dc9565b60405160200161168f929190612d01565b6040516020818303038152906040525b915050919050565b6001816000016000828254019250508190555050565b600081600001549050919050565b600073ffffffffffffffffffffffffffffffffffffffff168273ffffffffffffffffffffffffffffffffffffffff16141561173b576040517f08c379a000000000000000000000000000000000000000000000000000000000815260040161173290613242565b60405180910390fd5b61174481610d4e565b15611784576040517f08c379a000000000000000000000000000000000000000000000000000000000815260040161177b906132ae565b60405180910390fd5b611790600083836119fb565b6001600360008473ffffffffffffffffffffffffffffffffffffffff1673ffffffffffffffffffffffffffffffffffffffff16815260200190815260200160002060008282546117e09190612f3e565b92505081905550816002600083815260200190815260200160002060006101000a81548173ffffffffffffffffffffffffffffffffffffffff021916908373ffffffffffffffffffffffffffffffffffffffff160217905550808273ffffffffffffffffffffffffffffffffffffffff16600073ffffffffffffffffffffffffffffffffffffffff167fddf252ad1be2c89b69c2b068fc378daa952ba7f163c4a11628f55a4df523b3ef60405160405180910390a46118a160008383611a00565b5050565b6118ae82610d4e565b6118ed576040517f08c379a00000000000000000000000000000000000000000000000000000000081526004016118e490613340565b60405180910390fd5b80600660008481526020019081526020016000209080519060200190611914929190611fb7565b505050565b60007f80ac58cd000000000000000000000000000000000000000000000000000000007bffffffffffffffffffffffffffffffffffffffffffffffffffffffff1916827bffffffffffffffffffffffffffffffffffffffffffffffffffffffff191614806119e457507f5b5e139f000000000000000000000000000000000000000000000000000000007bffffffffffffffffffffffffffffffffffffffffffffffffffffffff1916827bffffffffffffffffffffffffffffffffffffffffffffffffffffffff1916145b806119f457506119f382611f2a565b5b9050919050565b505050565b505050565b606060006002836002611a189190613360565b611a229190612f3e565b67ffffffffffffffff811115611a3b57611a3a6124fc565b5b6040519080825280601f01601f191660200182016040528015611a6d5781602001600182028036833780820191505090505b5090507f300000000000000000000000000000000000000000000000000000000000000081600081518110611aa557611aa46133ba565b5b60200101907effffffffffffffffffffffffffffffffffffffffffffffffffffffffffffff1916908160001a9053507f780000000000000000000000000000000000000000000000000000000000000081600181518110611b0957611b086133ba565b5b60200101907effffffffffffffffffffffffffffffffffffffffffffffffffffffffffffff1916908160001a90535060006001846002611b499190613360565b611b539190612f3e565b90505b6001811115611bf3577f3031323334353637383961626364656600000000000000000000000000000000600f861660108110611b9557611b946133ba565b5b1a60f81b828281518110611bac57611bab6133ba565b5b60200101907effffffffffffffffffffffffffffffffffffffffffffffffffffffffffffff1916908160001a905350600485901c945080611bec906133e9565b9050611b56565b5060008414611c37576040517f08c379a0000000000000000000000000000000000000000000000000000000008152600401611c2e9061345f565b60405180910390fd5b8091505092915050565b6000611c628473ffffffffffffffffffffffffffffffffffffffff16611f94565b15611dbc578373ffffffffffffffffffffffffffffffffffffffff1663150b7a02611c8b610dba565b8786866040518563ffffffff1660e01b8152600401611cad94939291906134d4565b6020604051808303816000875af1925050508015611ce957506040513d601f19601f82011682018060405250810190611ce69190613535565b60015b611d6c573d8060008114611d19576040519150601f19603f3d011682016040523d82523d6000602084013e611d1e565b606091505b50600081511415611d64576040517f08c379a0000000000000000000000000000000000000000000000000000000008152600401611d5b90613144565b60405180910390fd5b805181602001fd5b63150b7a0260e01b7bffffffffffffffffffffffffffffffffffffffffffffffffffffffff1916817bffffffffffffffffffffffffffffffffffffffffffffffffffffffff191614915050611dc1565b600190505b949350505050565b60606000821415611e11576040518060400160405280600181526020017f30000000000000000000000000000000000000000000000000000000000000008152509050611f25565b600082905060005b60008214611e43578080611e2c90613562565b915050600a82611e3c91906135da565b9150611e19565b60008167ffffffffffffffff811115611e5f57611e5e6124fc565b5b6040519080825280601f01601f191660200182016040528015611e915781602001600182028036833780820191505090505b5090505b60008514611f1e57600182611eaa9190612f0a565b9150600a85611eb9919061360b565b6030611ec59190612f3e565b60f81b818381518110611edb57611eda6133ba565b5b60200101907effffffffffffffffffffffffffffffffffffffffffffffffffffffffffffff1916908160001a905350600a85611f1791906135da565b9450611e95565b8093505050505b919050565b60007f01ffc9a7000000000000000000000000000000000000000000000000000000007bffffffffffffffffffffffffffffffffffffffffffffffffffffffff1916827bffffffffffffffffffffffffffffffffffffffffffffffffffffffff1916149050919050565b6000808273ffffffffffffffffffffffffffffffffffffffff163b119050919050565b828054611fc390612803565b90600052602060002090601f016020900481019282611fe5576000855561202c565b82601f10611ffe57805160ff191683800117855561202c565b8280016001018555821561202c579182015b8281111561202b578251825591602001919060010190612010565b5b509050612039919061203d565b5090565b5b8082111561205657600081600090555060010161203e565b5090565b6000604051905090565b600080fd5b600080fd5b60007fffffffff0000000000000000000000000000000000000000000000000000000082169050919050565b6120a38161206e565b81146120ae57600080fd5b50565b6000813590506120c08161209a565b92915050565b6000602082840312156120dc576120db612064565b5b60006120ea848285016120b1565b91505092915050565b60008115159050919050565b612108816120f3565b82525050565b600060208201905061212360008301846120ff565b92915050565b600081519050919050565b600082825260208201905092915050565b60005b83811015612163578082015181840152602081019050612148565b83811115612172576000848401525b50505050565b6000601f19601f8301169050919050565b600061219482612129565b61219e8185612134565b93506121ae818560208601612145565b6121b781612178565b840191505092915050565b600060208201905081810360008301526121dc8184612189565b905092915050565b6000819050919050565b6121f7816121e4565b811461220257600080fd5b50565b600081359050612214816121ee565b92915050565b6000602082840312156122305761222f612064565b5b600061223e84828501612205565b91505092915050565b600073ffffffffffffffffffffffffffffffffffffffff82169050919050565b600061227282612247565b9050919050565b61228281612267565b82525050565b600060208201905061229d6000830184612279565b92915050565b6122ac81612267565b81146122b757600080fd5b50565b6000813590506122c9816122a3565b92915050565b600080604083850312156122e6576122e5612064565b5b60006122f4858286016122ba565b925050602061230585828601612205565b9150509250929050565b60008060006060848603121561232857612327612064565b5b6000612336868287016122ba565b9350506020612347868287016122ba565b925050604061235886828701612205565b9150509250925092565b6000819050919050565b61237581612362565b811461238057600080fd5b50565b6000813590506123928161236c565b92915050565b6000602082840312156123ae576123ad612064565b5b60006123bc84828501612383565b91505092915050565b6123ce81612362565b82525050565b60006020820190506123e960008301846123c5565b92915050565b6000806040838503121561240657612405612064565b5b600061241485828601612383565b9250506020612425858286016122ba565b9150509250929050565b60006020828403121561244557612444612064565b5b6000612453848285016122ba565b91505092915050565b612465816121e4565b82525050565b6000602082019050612480600083018461245c565b92915050565b61248f816120f3565b811461249a57600080fd5b50565b6000813590506124ac81612486565b92915050565b600080604083850312156124c9576124c8612064565b5b60006124d7858286016122ba565b92505060206124e88582860161249d565b9150509250929050565b600080fd5b600080fd5b7f4e487b7100000000000000000000000000000000000000000000000000000000600052604160045260246000fd5b61253482612178565b810181811067ffffffffffffffff82111715612553576125526124fc565b5b80604052505050565b600061256661205a565b9050612572828261252b565b919050565b600067ffffffffffffffff821115612592576125916124fc565b5b61259b82612178565b9050602081019050919050565b82818337600083830152505050565b60006125ca6125c584612577565b61255c565b9050828152602081018484840111156125e6576125e56124f7565b5b6125f18482856125a8565b509392505050565b600082601f83011261260e5761260d6124f2565b5b813561261e8482602086016125b7565b91505092915050565b6000806000806080858703121561264157612640612064565b5b600061264f878288016122ba565b9450506020612660878288016122ba565b935050604061267187828801612205565b925050606085013567ffffffffffffffff81111561269257612691612069565b5b61269e878288016125f9565b91505092959194509250565b600067ffffffffffffffff8211156126c5576126c46124fc565b5b6126ce82612178565b9050602081019050919050565b60006126ee6126e9846126aa565b61255c565b90508281526020810184848401111561270a576127096124f7565b5b6127158482856125a8565b509392505050565b600082601f830112612732576127316124f2565b5b81356127428482602086016126db565b91505092915050565b60006020828403121561276157612760612064565b5b600082013567ffffffffffffffff81111561277f5761277e612069565b5b61278b8482850161271d565b91505092915050565b600080604083850312156127ab576127aa612064565b5b60006127b9858286016122ba565b92505060206127ca858286016122ba565b9150509250929050565b7f4e487b7100000000000000000000000000000000000000000000000000000000600052602260045260246000fd5b6000600282049050600182168061281b57607f821691505b6020821081141561282f5761282e6127d4565b5b50919050565b7f4552433732313a20617070726f76656420717565727920666f72206e6f6e657860008201527f697374656e7420746f6b656e0000000000000000000000000000000000000000602082015250565b6000612891602c83612134565b915061289c82612835565b604082019050919050565b600060208201905081810360008301526128c081612884565b9050919050565b7f4552433732313a20617070726f76616c20746f2063757272656e74206f776e6560008201527f7200000000000000000000000000000000000000000000000000000000000000602082015250565b6000612923602183612134565b915061292e826128c7565b604082019050919050565b6000602082019050818103600083015261295281612916565b9050919050565b7f4552433732313a20617070726f76652063616c6c6572206973206e6f74206f7760008201527f6e6572206e6f7220617070726f76656420666f7220616c6c0000000000000000602082015250565b60006129b5603883612134565b91506129c082612959565b604082019050919050565b600060208201905081810360008301526129e4816129a8565b9050919050565b7f4552433732313a207472616e736665722063616c6c6572206973206e6f74206f60008201527f776e6572206e6f7220617070726f766564000000000000000000000000000000602082015250565b6000612a47603183612134565b9150612a52826129eb565b604082019050919050565b60006020820190508181036000830152612a7681612a3a565b9050919050565b7f416363657373436f6e74726f6c3a2063616e206f6e6c792072656e6f756e636560008201527f20726f6c657320666f722073656c660000000000000000000000000000000000602082015250565b6000612ad9602f83612134565b9150612ae482612a7d565b604082019050919050565b60006020820190508181036000830152612b0881612acc565b9050919050565b7f4552433732313a206f776e657220717565727920666f72206e6f6e657869737460008201527f656e7420746f6b656e0000000000000000000000000000000000000000000000602082015250565b6000612b6b602983612134565b9150612b7682612b0f565b604082019050919050565b60006020820190508181036000830152612b9a81612b5e565b9050919050565b7f4552433732313a2062616c616e636520717565727920666f7220746865207a6560008201527f726f206164647265737300000000000000000000000000000000000000000000602082015250565b6000612bfd602a83612134565b9150612c0882612ba1565b604082019050919050565b60006020820190508181036000830152612c2c81612bf0565b9050919050565b7f45524337323155524953746f726167653a2055524920717565727920666f722060008201527f6e6f6e6578697374656e7420746f6b656e000000000000000000000000000000602082015250565b6000612c8f603183612134565b9150612c9a82612c33565b604082019050919050565b60006020820190508181036000830152612cbe81612c82565b9050919050565b600081905092915050565b6000612cdb82612129565b612ce58185612cc5565b9350612cf5818560208601612145565b80840191505092915050565b6000612d0d8285612cd0565b9150612d198284612cd0565b91508190509392505050565b7f4552433732313a206f70657261746f7220717565727920666f72206e6f6e657860008201527f697374656e7420746f6b656e0000000000000000000000000000000000000000602082015250565b6000612d81602c83612134565b9150612d8c82612d25565b604082019050919050565b60006020820190508181036000830152612db081612d74565b9050919050565b7f4552433732313a207472616e736665722066726f6d20696e636f72726563742060008201527f6f776e6572000000000000000000000000000000000000000000000000000000602082015250565b6000612e13602583612134565b9150612e1e82612db7565b604082019050919050565b60006020820190508181036000830152612e4281612e06565b9050919050565b7f4552433732313a207472616e7366657220746f20746865207a65726f2061646460008201527f7265737300000000000000000000000000000000000000000000000000000000602082015250565b6000612ea5602483612134565b9150612eb082612e49565b604082019050919050565b60006020820190508181036000830152612ed481612e98565b9050919050565b7f4e487b7100000000000000000000000000000000000000000000000000000000600052601160045260246000fd5b6000612f15826121e4565b9150612f20836121e4565b925082821015612f3357612f32612edb565b5b828203905092915050565b6000612f49826121e4565b9150612f54836121e4565b9250827fffffffffffffffffffffffffffffffffffffffffffffffffffffffffffffffff03821115612f8957612f88612edb565b5b828201905092915050565b7f416363657373436f6e74726f6c3a206163636f756e7420000000000000000000600082015250565b6000612fca601783612cc5565b9150612fd582612f94565b601782019050919050565b7f206973206d697373696e6720726f6c6520000000000000000000000000000000600082015250565b6000613016601183612cc5565b915061302182612fe0565b601182019050919050565b600061303782612fbd565b91506130438285612cd0565b915061304e82613009565b915061305a8284612cd0565b91508190509392505050565b7f4552433732313a20617070726f766520746f2063616c6c657200000000000000600082015250565b600061309c601983612134565b91506130a782613066565b602082019050919050565b600060208201905081810360008301526130cb8161308f565b9050919050565b7f4552433732313a207472616e7366657220746f206e6f6e20455243373231526560008201527f63656976657220696d706c656d656e7465720000000000000000000000000000602082015250565b600061312e603283612134565b9150613139826130d2565b604082019050919050565b6000602082019050818103600083015261315d81613121565b9050919050565b7f4552433732314d657461646174613a2055524920717565727920666f72206e6f60008201527f6e6578697374656e7420746f6b656e0000000000000000000000000000000000602082015250565b60006131c0602f83612134565b91506131cb82613164565b604082019050919050565b600060208201905081810360008301526131ef816131b3565b9050919050565b7f4552433732313a206d696e7420746f20746865207a65726f2061646472657373600082015250565b600061322c602083612134565b9150613237826131f6565b602082019050919050565b6000602082019050818103600083015261325b8161321f565b9050919050565b7f4552433732313a20746f6b656e20616c7265616479206d696e74656400000000600082015250565b6000613298601c83612134565b91506132a382613262565b602082019050919050565b600060208201905081810360008301526132c78161328b565b9050919050565b7f45524337323155524953746f726167653a2055524920736574206f66206e6f6e60008201527f6578697374656e7420746f6b656e000000000000000000000000000000000000602082015250565b600061332a602e83612134565b9150613335826132ce565b604082019050919050565b600060208201905081810360008301526133598161331d565b9050919050565b600061336b826121e4565b9150613376836121e4565b9250817fffffffffffffffffffffffffffffffffffffffffffffffffffffffffffffffff04831182151516156133af576133ae612edb565b5b828202905092915050565b7f4e487b7100000000000000000000000000000000000000000000000000000000600052603260045260246000fd5b60006133f4826121e4565b9150600082141561340857613407612edb565b5b600182039050919050565b7f537472696e67733a20686578206c656e67746820696e73756666696369656e74600082015250565b6000613449602083612134565b915061345482613413565b602082019050919050565b600060208201905081810360008301526134788161343c565b9050919050565b600081519050919050565b600082825260208201905092915050565b60006134a68261347f565b6134b0818561348a565b93506134c0818560208601612145565b6134c981612178565b840191505092915050565b60006080820190506134e96000830187612279565b6134f66020830186612279565b613503604083018561245c565b8181036060830152613515818461349b565b905095945050505050565b60008151905061352f8161209a565b92915050565b60006020828403121561354b5761354a612064565b5b600061355984828501613520565b91505092915050565b600061356d826121e4565b91507fffffffffffffffffffffffffffffffffffffffffffffffffffffffffffffffff8214156135a05761359f612edb565b5b600182019050919050565b7f4e487b7100000000000000000000000000000000000000000000000000000000600052601260045260246000fd5b60006135e5826121e4565b91506135f0836121e4565b925082613600576135ff6135ab565b5b828204905092915050565b6000613616826121e4565b9150613621836121e4565b925082613631576136306135ab565b5b82820690509291505056fea2646970667358221220deb63dcfd5e9efe27f745c80703aeae2dd027aa3f7f68eb8bff3a40dcb77296464736f6c634300080b0033",
  "linkReferences": {},
  "deployedLinkReferences": {}
}